S00D00006D6F7273652E73726563F1
S11300000C9465000C9482000C9482000C94820081
S11300100C9482000C9482000C9482000C94820054
S11300200C9482000C9482000C9482000C94820044
S11300300C9482000C9482000C9482000C94820034
S11300400C9482000C9482000C9482000C94820024
S11300500C9482000C9482000C9482000C94820014
S11300600C9482000C9482001703F9027601620357
S1130070060259030C01BD024E023B0375017501D2
S1130080750175017501750175014502D202D3012F
S1130090780260012903960221014B018B01F002D1
S11300A02003B501FD01A0018102DB02E801360154
S11300B0CA0130021B02B40232039F02630263646A
S11300C0696E6F70737578585B0011241FBECFEF93
S11300D0D8E0DEBFCDBF11E0A0E0B1E0EEE9FFE083
S11300E002C005900D92AA30B107D9F721E0AAE029
S11300F0B1E001C01D92AE31B207E1F70E94800366
S11301000C94CD070C9400009091C00095FFFCCF97
S11301108093C60080E090E008958091C00087FF3E
S1130120FCCF8091C60090E0089587E690E090931C
S1130130C5008093C4001092C00088E18093C10080
S113014086E08093C20008952D982AEA34ED8CE16C
S113015091E02150304080409040D9F7000080E287
S113016090E00C9422042D982FEF8BE792E9215014
S113017080409040E1F700C0000080E290E00C94E1
S113018022042D982FEF83ED90E32150804090407E
S1130190E1F700C0000008952D9A2FEF8BE792E954
S11301A0215080409040E1F700C000002D982D9828
S11301B02FEF83ED90E3215080409040E1F700C0A1
S11301C0000008952D9A2FEF83ED90E32150804095
S11301D09040E1F700C000002D982D982FEF83ED9B
S11301E090E3215080409040E1F700C00000089562
S11301F0082E000C990B0E941A04082E000C990B6F
S1130200AA0BBB0BFC01F097EB32F10508F06DC0B3
S1130210EC5CFF4F0C9414042D9A2FEF8BE792E9BA
S1130220215080409040E1F700C000002D982D98A7
S11302302FEF83ED90E3215080409040E1F700C020
S113024000002D9A2FEF83ED90E3215080409040E1
S1130250E1F700C000002D982D982FEF83ED90E377
S1130260215080409040E1F700C000002D9A2FEF0C
S113027083ED90E3215080409040E1F700C00000FE
S11302802D982D982FEF83ED90E3215080409040DE
S1130290E1F700C000002D9A2FEF83ED90E3215089
S11302A080409040E1F700C000002D982D982FEF7A
S11302B083ED90E3215080409040E1F700C00000BE
S11302C02D9A2FEF83ED90E3215080409040E1F789
S11302D000C000002D982D982FEF83ED90E321505E
S11302E080409040E1F700C0000008952D9A2FEF60
S11302F083ED90E3215080409040E1F700C000007E
S11303002D982D982FEF83ED90E32150804090405D
S1130310E1F700C000002D9A2FEF83ED90E3215008
S113032080409040E1F700C000002D982D982FEFF9
S113033083ED90E3215080409040E1F700C000003D
S11303402D9A2FEF8BE792E9215080409040E1F7FE
S113035000C000002D982D982FEF83ED90E32150DD
S113036080409040E1F700C000002D9A2FEF8BE70A
S113037092E9215080409040E1F700C000002D98A0
S11303802D982FEF83ED90E3215080409040E1F7CA
S113039000C000002D9A2FEF8BE792E92150804096
S11303A09040E1F795CF2D9A2FEF8BE792E92150FA
S11303B080409040E1F700C000002D982D982FEF69
S11303C083ED90E3215080409040E1F700C00000AD
S11303D02D9A2FEF83ED90E3215080409040E1F778
S11303E000C000002D982D982FEF83ED90E321504D
S11303F080409040E1F700C000002D9A2FEF8BE77A
S113040092E9215080409040E1F74DCF2D9A2FEF93
S113041083ED90E3215080409040E1F700C000005C
S11304202D982D982FEF83ED90E32150804090403C
S1130430E1F700C000002D9A2FEF83ED90E32150E7
S113044080409040E1F700C000002D982D982FEFD8
S113045083ED90E3215080409040E1F700C000001C
S11304602D9A2FEF83ED90E3215080409040E1F7E7
S113047000C000002D982D982FEF83ED90E32150BC
S113048080409040E1F700C000002D9A2FEF83EDEB
S113049090E3215080409040E1F76FCF2D9A2FEFE9
S11304A08BE792E9215080409040E1F700C00000C2
S11304B02D982D982FEF83ED90E3215080409040AC
S11304C0E1F700C000002D9A2FEF8BE792E921504D
S11304D080409040E1F700C000002D982D982FEF48
S11304E083ED90E3215080409040E1F700C000008C
S11304F02D9A2FEF8BE792E9215080409040E1F74D
S1130500BDCE2D9A2FEF83ED90E321508040904093
S1130510E1F700C000002D982D982FEF83ED90E3B4
S1130520215080409040E1F700C000002D9A2FEF49
S11305308BE792E9215080409040E1F751CF2D9A0A
S11305402FEF8BE792E9215080409040E1F700C003
S113055000002D982D982FEF83ED90E321508040DB
S11305609040E1F700C000002D9A2FEF83ED90E357
S1130570215080409040E1F7EBCE2D9A2FEF8BE78E
S113058092E9215080409040E1F700C000002D988E
S11305902D982FEF83ED90E3215080409040E1F7B8
S11305A000C000002D9A2FEF8BE792E92150804084
S11305B09040E1F74ECE2D9A2FEF8BE792E9215030
S11305C080409040E1F700C000002D982D982FEF57
S11305D083ED90E3215080409040E1F700C000009B
S11305E02D9A2FEF8BE792E9215080409040E1F75C
S11305F03FCF2D9A2FEF83ED90E321508040904020
S1130600E1F700C000002D982D982FEF83ED90E3C3
S1130610215080409040E1F700C000002D9A2FEF58
S11306208BE792E9215080409040E1F77CCE2D9AEF
S11306302FEF8BE792E9215080409040E1F7E1CF22
S11306402D9A2FEF83ED90E3215080409040E1F705
S113065042CF2D9A2FEF83ED90E3215080409040BC
S1130660E1F7A9CE2D9A2FEF8BE792E92150804034
S11306709040E1F7E8CE2D9A2FEF8BE792E92150D5
S113068080409040E1F700C000002D982D982FEF96
S113069083ED90E3215080409040E1F700C00000DA
S11306A02D9A2FEF8BE792E9215080409040E1F79B
S11306B030CF2D9A2FEF83ED90E32150804090406E
S11306C0E1F7B2CD2D9A2FEF83ED90E321508040D6
S11306D09040E1F700C000002D982D982FEF83ED96
S11306E090E3215080409040E1F700C000002D9A33
S11306F02FEF83ED90E3215080409040E1F727CF26
S1130700CF93DF93CDB7DEB7E2970FB6F894DEBF91
S11307100FBECDBF87E690E09093C5008093C400E0
S11307201092C00088E18093C10086E08093C200EB
S11307308AE091E024E830E0309313012093120121
S11307402DE830E0309315012093140123E0209329
S11307500D01109217011092160190931D018093C0
S11307601C0190931B0180931A01909319018093AB
S11307701801259A80E0A82E81E0B82E06C0F70162
S11307808081803279F1811140C021E030E02C0F6A
S11307903D1F3F932F93BF92AF920E9429048981FA
S11307A00F900F900F900F90882379F3FE013196EC
S11307B07F0100E010E08032C1F068019FEFC91AA8
S11307C0D90AF70181917F010E94F80001331105D4
S11307D0B1F6E1E0F0E0EC0FFD1FEC0DFD1D8081B2
S11307E0882399F28601803241F72D98FAEA24EDA4
S11307F03CE181E0F150204030408040D9F70000D6
S113080080E290E00E942204D8CF2D98FFEF2BE7DE
S113081032E9F15020403040E1F700C0000080E2AE
S113082090E00E942204D5CFEE0FFF1F0590F491B3
S1130830E02D09949111089581568A5108F480524B
S11308408558089560911A0170911B010E943E071A
S11308500895A0E0B0E0EFE2F4E00C94A607AE0146
S11308604B5F5F4FFA0161917191AF018091180163
S1130870909119010E94DB05E2E00C94C20720FD6F
S113088009C0FC0123FD05C022FF02C073836283FB
S113089051834083089544FD17C046FD17C0AB0142
S11308A0BC01DA01FB01AA0FBB1FEE1FFF1F10944E
S11308B0D1F74A0F5B1F6E1F7F1FCB01BA01660F72
S11308C0771F881F991F09C033E001C034E0660F09
S11308D0771F881F991F3150D1F7620F711D811D39
S11308E0911D08950F931F93CF93DF938C01C8013B
S11308F00E940007EC0197FD08C00E94EC06892BBA
S1130900B1F7B801CE010E947A07CE01DF91CF91F1
S11309101F910F9108958F929F92AF92BF92EF9281
S1130920FF920F931F93CF93DF938C01D62F7A01FD
S1130930B22E0E9400079C0133272B32310531F07F
S11309402D32310561F48B2D8068B82ED15011F40D
S113095080E068C0C8010E94000797FDF9CFCB2D45
S1130960CD7F2B2D207309F58033F9F4AA24AA94A2
S1130970AD0E09F443C0C8010E94000797FD3EC0B4
S11309809C012F7D33272835310549F4C264D250A8
S1130990A9F1C8010E94000797FF07C02FC0B6FE47
S11309A002C0C26001C0C261DA2D812C912C5401B5
S11309B020ED280F283080F0C4FF04C0B8010E9445
S11309C07A0719C02A3040F0C6FFF8CF2F7D3FEEDA
S11309D0320F363098F727504C2FC501B4010E94CE
S11309E04B044B015C01C260D15059F0C8010E9414
S11309F0000797FFDDCFC1FD04C0AACF812C912C45
S1130A005401C7FF08C0B094A09490948094811CB2
S1130A10911CA11CB11C2C2FB501A401C7010E947B
S1130A203F0481E0DF91CF911F910F91FF90EF90F0
S1130A30BF90AF909F908F900895A0E2B0E0E3E262
S1130A40F5E00C9499075C01962E7A01F9018E0168
S1130A500F5F1F4F680180E2D8011D928A95E9F764
S1130A60D50113968C9080E090E0612C712C30E0DD
S1130A7061E070E083FC259183FE21918F01522E69
S1130A80211103C080E090E092C02E3511F400974C
S1130A9051F1432F50E0481759073CF42D3559F1D3
S1130AA02D3219F4772009F103C0772009F46AC0C4
S1130AB0452D469546954695D601A40FB11D452D65
S1130AC047708B0102C0000F111F4A95E2F7A8017D
S1130AD05C91452B4C93651459F0561410F45394BF
S1130AE0E7CF5A94E5CF31E004C07724739401C072
S1130AF0712C0196BFCF772019F08E8180628E838E
S1130B00311103C08824839417C0F6019E012F5D20
S1130B103F4F8081809581932E173F07D1F7F2CF05
S1130B20E114F10429F0D7018C93F70131967F0188
S1130B309A94812C9920F9F0C5010E94000797FD31
S1130B4018C0FC01FF2723E0F595E7952A95E1F706
S1130B50EC0DFD1D208130E0AC014770552702C02B
S1130B60359527954A95E2F720FDDACFB5010E9425
S1130B707A07811087CFE114F10411F0D7011C9298
S1130B80C80115C0422F469546954695D601A40F37
S1130B90B11D422F47708B0102C0000F111F4A95EF
S1130BA0E2F7A8015C91452B4C93622EA2CFA0964C
S1130BB0EFE00C94B507A0E0B0E0E1EEF5E00C94B2
S1130BC099076C01EB015A01FC0117821682512C22
S1130BD0F601E380FE01E3FC8591E3FE8191182F89
S1130BE0EF01882309F4EEC090E00E94EC06892B03
S1130BF021F0C6010E947204EBCF153241F4FE01CC
S1130C00E3FC1591E3FE1191EF01153281F4C60165
S1130C100E94000797FDD4C0412F50E09C01332768
S1130C2024173507A9F2B6010E947A07CBC01A32FD
S1130C3039F4E3FC1591E3FE1191EF0101E001C0E9
S1130C4000E0F12C20ED210F2A3080F402606F2D9A
S1130C5070E080E090E040E20E944B04F62EFE013A
S1130C60E3FC1591E3FE1191EF01ECCF01FF03C00A
S1130C70F11003C0A7C0FF24FA94183619F01C36EB
S1130C8051F010C0FE01E3FC1591E3FE1191EF0158
S1130C90183641F408600460FE01E3FC1591E3FE9C
S1130CA01191EF01112309F48DC0612F70E08EEBD7
S1130CB090E00E94F506892B09F484C000FD07C06A
S1130CC0F50180809180C50102965C0102C0812CEF
S1130CD0912C1E3651F4F6014681578160E070E094
S1130CE0202FC4010E943F0473CF1336A9F401FDE1
S1130CF002C0FF24F394C6010E94000797FD60C060
S1130D008114910429F0F4018083C40101964C01FB
S1130D10FA94F110F0CF50C01B3559F49E01A40190
S1130D206F2DC6010E941D05EC01892B09F044C0FA
S1130D303EC0C6010E94720497FD42C01F3661F195
S1130D4028F4143639F1193651F128C0133771F0EB
S1130D50153701F123C08114910429F0F401608254
S1130D60C40101964C01FA94FF2071F0C6010E945F
S1130D7000073C0197FD08C00E94EC06892B59F33B
S1130D80B601C3010E947A0781149104A9F0F40109
S1130D90108212C0006203C0006101C00064202FF1
S1130DA0A4016F2DC6010E948B04811105C0F601B8
S1130DB08381807329F406C000FD0ACF539408CFC1
S1130DC0552019F0852D90E002C08FEF9FEFCDB72D
S1130DD0DEB7EFE00C94B50791110C9493078032C1
S1130DE019F089508550C8F70895FC01059006163E
S1130DF021F00020D9F7C00108953197CF0108955B
S1130E00CF93DF93EC012B8120FF33C026FF0AC070
S1130E102F7B2B838E819F8101969F838E838A8172
S1130E2090E029C022FF0FC0E881F9818081082E5B
S1130E30000C990B009719F420622B831AC0319689
S1130E40F983E8830EC0EA85FB85099597FF09C0FD
S1130E502B81019611F080E201C080E1822B8B830B
S1130E6008C02E813F812F5F3F4F3F832E839927F8
S1130E7002C08FEF9FEFDF91CF9108950F931F93DF
S1130E80CF93DF93FB01238121FD03C08FEF9FEFFD
S1130E902CC022FF16C04681578124813581421718
S1130EA0530744F4A081B1819D012F5F3F4F3183EB
S1130EB020838C93268137812F5F3F4F378326838E
S1130EC014C08B01EC01FB010084F185E02D099530
S1130ED0892BE1F6D80116968D919C91179701966E
S1130EE017969C938E931697CE01DF91CF911F9105
S1130EF00F910895FB01238120FF12C026FD10C02D
S1130F008F3F3FEF930761F082832F7D206423831B
S1130F102681378121503109378326839927089503
S1130F208FEF9FEF08959927882708952F923F9276
S1130F304F925F926F927F928F929F92AF92BF92E5
S1130F40CF92DF92EF92FF920F931F93CF93DF9391
S1130F50CDB7DEB7CA1BDB0B0FB6F894DEBF0FBEEE
S1130F60CDBF09942A88398848885F846E847D843B
S1130F708C849B84AA84B984C884DF80EE80FD803D
S1130F800C811B81AA81B981CE0FD11D0FB6F894B3
S1110F90DEBF0FBECDBFED010895F894FFCF74
S10D0F9E255B5E0D0A5D256300006B
S9030000FC
