S00E0000627574746F6E2E737265637A
S11300000C9434000C943E000C943E000C943E007E
S11300100C943E000C943E000C943E000C943E0064
S11300200C943E000C943E000C943E000C943E0054
S11300300C943E000C943E000C943E000C943E0044
S11300400C943E000C943E000C943E000C943E0034
S11300500C943E000C943E000C943E000C943E0024
S11300600C943E000C943E0011241FBECFEFD8E048
S1130070DEBFCDBF0E9451000C94F1000C9400002F
S11300804A9B02C080E008958FE99FE00197F1F751
S113009000C0000089B182FB992790F981E089278B
S11300A00895CF93DF93CDB7DEB7C05DD7400FB6C9
S11300B0F894DEBF0FBECDBF8FEF84B952985A9A21
S11300C0E0E0F0E020E030E080E090E000ED17E0D8
S11300D0FF24F3944CE3D42E53ECE52E1DC0A1E091
S11300E0B0E0AC0FBD1FA80FB91FFC920196B80178
S11300F00E94C90021E030E0883E43E09407E9F023
S1130100E130F105C1F0E230F10521F1AFE9BFE0E2
S11301101197F1F700C000002115310511F44A9937
S1130120EBCF4A9BDCCFA1E0B0E0AC0FBD1FA80F22
S1130130B91F1C92DBCF009769F0E9E1FCEFEC0FEB
S1130140FD1FE80FF91F4081411111C0E5B8E1E03E
S1130150F0E0DCCFE9EEF3E0EC0FFD1FE80FF91F50
S11301604081411109C0E5B8E2E0F0E0CFCF413071
S113017041F0E1E0F0E0CACF413039F0E2E0F0E0F4
S1130180C5CFD5B8E1E0F0E0C1CFD5B8E2E0F0E00A
S1130190BDCF97FB072E16F4009407D077FD09D046
S11301A00E94DD0007FC05D03EF4909581959F4F99
S11301B00895709561957F4F0895AA1BBB1B51E16B
S11301C007C0AA1FBB1FA617B70710F0A61BB70BC3
S11301D0881F991F5A95A9F780959095BC01CD0168
S10901E00895F894FFCF1E
S9030000FC
